:0200000480007A
:1000000013000000930700006F00C0001300000001
:1000100093071000174100901301C1FE170500005F
:100020001305050F7310553073101534731000301D
:100030007310403093057000739065309305000095
:1000400073900532731000B0731000B8731020B0B5
:10005000731020B81704000013040416970400005E
:100060009384C41A63589402832504000326440031
:10007000832684001304C400635CD60003A7050034
:100080002320E60093854500130646006FF0DFFE4F
:100090006FF05FFD1704000013044417970400007D
:1000A0009384C418635294028325040003264400F9
:1000B0001304840063D8C50023A005009385450080
:1000C0006FF05FFF6FF01FFE97410090938181F307
:1000D00013020000930200001303000093030000CA
:1000E000130400009304000013850700930500002B
:1000F000130600009306000013070000930700009A
:10010000EF00D00A130000006FF0DFFF13000000C3
:100110006FF0DFFF130101FF2324810023229100F0
:1001200037040080B704008093878422130484225C
:100130003304F440232021012326110013542440CA
:100140009384842213090000635C890083A7040060
:100150001309190093844400E78007006FF0DFFE65
:10016000B704008037040080938784221304C422DC
:100170003304F44013542440938484221309000070
:10018000635C890083A70400130919009384440069
:10019000E78007006FF0DFFE8320C10003248100A9
:1001A000832441000329010013010101678000003D
:0401B0006FF05FF697
:1001B400740E00800038001060380010740E008047
:1001C4000038001000380010740E00800038001051
:1001D40000380010740E0080003800100038001041
:1001E4002802008000380010003800102802008027
:1001F4000038001000380010280200800038001079
:1002040000380010643800105839001064380010A9
:10021400643800106438001064380010643800102A
:04022400643800102A
:10022800800B008013051000678000000325C503BC
:100238003335A000678000006780000083471502FF
:1002480063900712834705026398071083472502C6
:100258006398070093071000A300F5026780000069
:1002680003270507130600208326470093D60601B7
:10027800E39CC6FE83260700E3CE06FE83461501EF
:10028800370600119387F7FFB3E6C6002320D7008F
:100298001307C5032322E5082324E5081307C00034
:1002A800B387E702032745049387C703B307F5001D
:1002B8002326F5088327C503232EF50663140700B4
:1002C80093070000232CF506930710002310050858
:1002D8002300F50283470508639007040327C50731
:1002E80003264508631A07088327C508631CF60612
:1002F800032705078327470093D70701638E070065
:1003080083471501B7060010B3E7D7002320F7008D
:10031800930710002300F508834715086390070228
:1003280003278507631E070C832785088326C508CE
:10033800639AD70A93071000A300F50883470508B6
:100348006380070283471508638C070093074016EC
:100358002310F5026F00C00013071000E38CE7F6C6
:10036800678000009307C6002322F5088327C6008C
:10037800232EF5066FF09FF60328050783268600CF
:100388009307070083254800B336D000939686016B
:1003980093D5050163F4E50093870500832546009E
:1003A8003307F740232EE50663860502B387F50079
:1003B80063FCF50083C8050093851500B388D80051
:1003C800232018016FF0DFFE2322F600E30807F070
:1003D8006FF09FF4E38C07FE2320D8009387F7FF84
:1003E8006FF05FFF9386C7002324D50883A64701D3
:1003F8006384060003A7C700232CE5066FF0DFF12E
:100408008327050783A70700E3DA07F20327850890
:10041800032787002300F700032785088327870021
:10042800938717002324F700832785079387F7FF0F
:10043800232CF506E39607FC6FF01FEE6F00D00043
:10044800130101FF23248100130405000325C503BC
:1004580023229100232611009307F0092324F50293
:10046800930785022320F50493071000232EF50235
:10047800930704052328F504930730002324F50483
:1004880093072000232205042326050423100502D0
:100498002301F502EFF09FDA8324C40383C7140213
:1004A8006398070013850400EFF05FD96FF01FFF12
:1004B80083270405130500002324F400638A07003A
:1004C800370500FF13051500B387A7003335F00083
:1004D8008320C1000324810083244100130101010A
:1004E80067800000930705000325C503130101FF7A
:1004F80023261100130750002324E50293870705DC
:10050800130785022320E5042328F50413071000A8
:100518009307200023220504232EE5022326050441
:100528002324E504231005022301F502EFF01FD16F
:100538008320C1001305100013010101678000002A
:100548000325C503130101FF23261100930760004B
:100558002324F502930785022320F504930710004E
:10056800232EF502930720002322050423260504E1
:100578002328050423240504231005022301F5027A
:10058800EFF0DFCB8320C100130510001301010138
:1005980067800000130101FE232C8100130405006D
:1005A8000325C503232E1100232A910023282101A6
:1005B8002326310163020502EFF05FC80327840197
:1005C800630C0700930710006310F70C8327C4011E
:1005D80063820702638EE7088320C1010324810137
:1005E80083244101032901018329C1001301010268
:1005F800678000008324C4030325040393073000A5
:100608000329C4028329840223A4F40223A4F40442
:1006180083C724019386840223AEE4021387C402AD
:100628002390040223A0D40423A2040423A6A40232
:1006380023A6E40423A8040463880700EF0040729B
:100648001355850023A6A4029307300023AC0404A5
:1006580023AE340523AA24052381F402138504005C
:10066800EFF0DFBD93071000232EF4006FF0DFF6E4
:100678000327C40303471702E30007F6A308F4009F
:10068800232C04006FF05FF5930720006316F7181A
:100698008327C40113074001E360F7F4371700808C
:1006A800939727001307C7D9B387E70083A70700E5
:1006B800678007008327C402232AF4026FF09FFA99
:1006C80013050400EFF0DFE78327C40193871700C1
:1006D8006FF09FF98324C40383C71402E38E07EEE7
:1006E80003250403930700101377F50FB387E7403A
:1006F800032744032320F4026374F7002320E40251
:1007080093072000032904028329840223A4F40206
:100718009387840223A0F4049307100023AEF40205
:100728009387C40223A6F4049307300023A4F40497
:1007380083C724012390040223A2040423A6A4024D
:1007480023A8040463880700EF008061135585001F
:1007580023A6A40223AC340523AE040423AA24054B
:10076800930730002381F40213850400EFF01FADD6
:100778006FF09FF58327C40383C71702E38E07E44E
:1007880093074000232EF400832704001305040078
:10079800032481018320C10183244101032901012C
:1007A8008329C10083A7470113010102678007005D
:1007B8008327C40383C71702E38007E2834704053E
:1007C80093F71700638207021305040003248101CD
:1007D8008320C10183244101032901018329C10028
:1007E800130101026FF01FD00327040283270403BB
:1007F800B387E7002328F40283278402B387E7003E
:100808002324F40283274403B387E740232AF4020E
:10081800930710006FF01FF793073000E31EF7DA15
:100828008327C4019306400063C4F602E3C607DACF
:100838009387F7FF6366F7023717008093972700BF
:10084800130707DFB387E70083A707006780070060
:1008580013074001E392E7D8930710006FF01FE2F7
:10086800832784030327040313C6F7FFB375F70030
:10087800638C05008326C4023377C7002328E4026B
:10088800B386B6002326D4020327C402B387E70041
:10089800B3F7C7002326F4026FF01FE2832744034F
:1008A800E39007E2930740016FF0DFED8324C40370
:1008B80083C71402E38207D2832744000325040375
:1008C800638407081317050113570701B7070100C9
:1008D800631607000327C4026378F706B7170000FA
:1008E8002320F402930700022300F404834704043E
:1008F8002390040223A2040423A4F402938784020D
:1009080023A0F4049307100023AEF4029387C402D3
:1009180023A6F4049307300023A4F40483C7240116
:1009280023A6A40223A8040463880700EF00404319
:100938001355850023A6A40223AC040423AE0404A3
:1009480023AA04046FF0DFE1B70701002320F402B3
:10095800930780FD6FF05FF98327C40383C71702ED
:10096800E38C07C613050400EFF0DFB76FF0DFD59F
:100978008327C40383C71702E38007C68347040598
:1009880093F71700E39207E483260402032704037E
:10099800832744033307D7002328E402B387D740CB
:1009A8006FF0DFE6130101FD2326110223248102E3
:1009B8002322910223202103EFF04FF5B7E7F50535
:1009C8009387071023ACF194B7167A009387418672
:1009D8009386062023A4D70037F6FA029306100060
:1009E80023A0D70013060608B70604F023A8D706E5
:1009F80023A6C7061306700023A6C60003C6F70081
:100A080023A2060083C6E7006304060093E62600D7
:100A1800370704F02324D7001309100023282701DF
:100A2800232A2701232C27011387418F238227019B
:100A3800230807001385418F232EF702232227015D
:100A4800EFF01FA01384418F6302050683278400FB
:100A5800638E0704370700011307F7FF6388E7046D
:100A680093D707013319F90083274400232624016B
:100A7800639A0702B70701009387F7FF232CF40254
:100A8800930710002308F40083471401639E0706A8
:100A980093075000232AF40083471401638A070848
:100AA8006F00C001B71700006FF01FFD83470401F6
:100AB800E39C07FC93071000A308F4000327010038
:100AC800B7C7DEC09387E7A5631EF70283274101F6
:100AD8001307301593D707016396E702834604018D
:100AE8000327810083274100639A060493072000A7
:100AF800232AF40093071000A308F4008327C100F9
:100B0800678007006F000000930700022326F402A5
:100B1800B70710002328F4029307100023242402A7
:100B2800232CF400232E0400232A0400A308040025
:100B38001385418FEFF01FA66FF01FF6938707020A
:100B48002326F402B70710002328F40293071000A5
:100B58002324E402232CF400232E0400232A040077
:100B6800A30804001385418FEFF0DFA28347140127
:100B7800E38A07FE6FF09FF8938741861307F0FF1B
:100B880023A0E70037470F001307072423A4E70033
:100B98001307800023A6E7003707010123A8E70011
:100BA800930630103707000123A0E7022392D702EB
:100BB8002382070023AA070023AC070023AE0700FF
:100BC80023A4070223A6070223A8070223AA0702D1
:100BD80023AC0702239A070623AC070623AE0706B1
:100BE8002390070823A2070823A4070823A60708B9
:100BF8009387418F23A2E7029306001037170080DE
:100C080023A2070023A4070023A607002398D700E0
:100C180023AA070023AC070023AE070023A007027E
:100C280023A40702130787E023A6070223A80702C5
:100C380023AA070223AC070223A0E70023AE07027A
:100C480023A00706678000006F0040009305050099
:100C580003A501866F004000638E050E83A7C5FFBC
:100C6800130101FE232C8100232E11001384C5FFDC
:100C780063D407003304F4002326A100EF00C00D5D
:100C880083A7C1950325C10013060700639E0700CB
:100C98002322040023AE8194032481018320C1010F
:100CA800130101026F00800B6376F40283260400AF
:100CB8003307D400639AE70003A7070083A7470018
:100CC8003307D7002320E4002322F40023AE8194C5
:100CD8006FF09FFC1387070083A747006384070012
:100CE800E37AF4FE832607003306D70063188602EA
:100CF80003260400B386C6002320D7003306D70096
:100D0800E39CC7F803A6070083A74700B306D600ED
:100D18002320D7002322F7006FF01FF86378C40060
:100D28009307C0002320F5006FF01FF70326040087
:100D3800B306C400639AD70083A6070083A74700B9
:100D4800B386C6002320D4002322F4002322870080
:100D58006FF09FF4678000006780000067800000E4
:100D68001317850193578501B7060100B3E7E7001C
:100D7800938606F0135785403377D700B3E7E7002B
:100D8800131585003707FF003375E50033E5A70025
:100D980067800000BC060080A4080080DC06008094
:100DA8007C0700806C090080B8070080E00500809F
:100DB800E0050080E0050080E0050080E005008097
:100DC800E0050080E0050080E0050080E005008087
:100DD800E0050080E0050080E0050080E005008077
:100DE800E005008060080080A4080080B408008046
:100DF8006009008078090080000000000000000001
:100E08004002008044040080340200802C020080EC
:100E1800480400809C0500801400000000000000C9
:100E2800037A5200017C01011B0D0207010000003A
:100E3800100000001C000000C0F1FFFF14010000BA
:100E4800000000001000000000000000037A5200BB
:100E5800017C01011B0D02001000000018000000B9
:0C0E6800E8FDFFFF040000000000000097
:100E7400000000000000000000000000000000006E
:100E8400000000000000000000000000000000005E
:100E9400000000000000000000000000000000004E
:100EA400000000000000000000000000000000003E
:100EB400000000000000000000000000000000002E
:100EC400000000000000000000000000000000001E
:040ED40000380010D2
:040000058000000C6B
:00000001FF
