:0200000480007A
:1000000013000000170100001301C13B1705000099
:100010001305C50773105530731015347310003075
:1000200073104030930570007390653093050000A5
:1000300073900532731000B0731000B8731020B0C5
:10004000731020B8971100009381C1AB1302000018
:100050009302000013030000930300001304000048
:1000600093040000138507009305000013060000A9
:100070009306000013070000930700006F00401074
:10008000130000006FF0DFFF130000006FF0DFFFD0
:10009000B70704F0370700802320F73013077000FC
:1000A00023A6E70023A2070023A4070013071000DC
:1000B00023A8E70023AAE70023ACE700678000003D
:1000C0003707008083270730130800201307073005
:1000D00083A6470093D60601E39C06FF83A607008C
:1000E000E3CE06FEB706001123A0D700930630002A
:1000F00023A0D7009356050193F6F60F23A0D7004F
:100100009356850093F6F60F23A0D7001375F50FCD
:1001100023A0A70093060600B708000137030010CC
:10012000631606006390060467800000032807003A
:100130009307060003254800135505016374C500A5
:10014000930705003306F640638807002320180153
:100150009387F7FF6FF05FFF6314060023206800AA
:10016000E38006FC8327070083A70700E3DA07FA8A
:100170002380F5009386F6FF938515006FF05FFEF0
:10018000130101FD23261102EFF09FF01306000278
:100190009305010037051000EFF09FF203270100DF
:1001A000B7C7DEC09387E7A5631AF70203274101AB
:1001B000B717000093871744135707016310F7021E
:1001C000832581000326410037051000130606022F
:1001D000EFF01FEF8327C100678007006F0000006A
:1001E0001400000000000000037A5200017C0101AD
:1001F0001B0D020701000000100000001C000000A1
:0C02000000FEFFFF900000000000000066
:1003C0000100411400E1F5050000100000100000DC
:0803D000000000020200000021
:040000058000000077
:00000001FF
