:0200000480007A
:1000000013000000930700006F00C0001300000001
:1000100093071000174100901301C1FE170500005F
:100020001305050F7310553073101534731000301D
:100030007310403093057000739065309305000095
:1000400073900532731000B0731000B8731020B0B5
:10005000731020B8170400001304841F97040000D5
:1000600093844424635894028325040003264400A7
:10007000832684001304C400635CD60003A7050034
:100080002320E60093854500130646006FF0DFFE4F
:100090006FF05FFD170400001304C42097040000F4
:1000A000938444226352940283250400032644006F
:1000B0001304840063D8C50023A005009385450080
:1000C0006FF05FFF6FF01FFE97410090938181F307
:1000D00013020000930200001303000093030000CA
:1000E000130400009304000013850700930500002B
:1000F000130600009306000013070000930700009A
:10010000EF00C027130000006FF0DFFF13000000B6
:100110006FF0DFFF130101FF23248100B707008088
:10012000370400801307042C9387072C2326110023
:100130002322910023202101B387E7406352F0027C
:1001400013D927401304042C9304000083270400D0
:100150009384140013044400E7800700E3C824FFDD
:1001600037040080B70700801307042C9387072CFF
:10017000B387E74013D927406350F0021304042CDF
:1001800093040000832704009384140013044400A4
:10019000E7800700E3C824FF8320C1000324810017
:1001A000832441000329010013010101678000003D
:1001B000130101FF23248100B7070080370400806A
:1001C0001307042C9387072C232611002322910068
:1001D00023202101B387E7406352F00213D927405F
:1001E0001304042C93040000832704009384140058
:1001F00013044400E7800700E3C824FF37040080AD
:10020000B70700801307042C9387072CB387E740B8
:1002100013D927406350F0021304042C9304000008
:10022000832704009384140013044400E78007002C
:10023000E3C824FF8320C1000324810083244100FC
:0C02400003290100130101016780000088
:10024C0034040080003800100038001034040080A2
:10025C000038001000380010340400800038001002
:10026C0000380010340400800038001000380010F2
:10027C00C00200800038001000380010C00200805E
:10028C000038001000380010C00200800038001048
:10029C000038001000380010003800100038001032
:1002AC000038001000380010003800100038001022
:0402BC0000380010F6
:1002C0003748001013080880032708009306002011
:1002D0008327470093D70701E39CD7FE83270700B6
:1002E000E3CE07FEB70700112320F7009356050160
:1002F000930730002320F70093F6F60F93578500FD
:100300002320D70093F7F70F2320F7001375F50F7D
:100310002320A700630E060493060600370500019C
:10032000B70800108327470093D707016374F600CE
:10033000930706003306F640638807002320A700D2
:100340009387F7FFE39C07FE63180600232017013D
:100350006F008000032708008327070063DC070085
:100360002380F5009386F6FF93851500E39406FE3F
:1003700067800000E31806FA67800000130101FDA2
:1003800023261102EFF0DFE2B70704F03747001031
:100390002320F7801307500023A6E70023A20700BD
:1003A00023A407001307100023A8E70023AAE700EF
:1003B00023ACE70013060002930501003705100087
:1003C000EFF01FF003270100B7C7DEC09387E7A552
:1003D0006304F7006F000000832741011307301208
:1003E00093D70701E398E7FE8325810003264100A8
:1003F0003705100013060602EFF09FEC8327C100BB
:10040000678007006FF01FFD14000000000000006F
:10041000037A5200017C01011B0D0207010000005C
:10042000100000001C000000D8FBFFFF14010000BA
:0404300000000000C8
:100FC000010023010000100000E1F5050000000011
:100FD0000000000000000000000000000000000011
:100FE0000000000000000000000000000000000001
:100FF00000000000000000000000000000000000F1
:040000058000000C6B
:00000001FF
