:0200000480007A
:100100000100041100E1F50500001000008000006E
:080110000000000001000000E6
:10014000B70704F0370700802320F7381307500063
:1001500023A6E70023A2070023A40700130710002B
:1001600023A8E70023AAE70023ACE700678000008C
:100170003707008083270738130800201307073844
:1001800083A6470093D60601E39C06FF83A60700DB
:10019000E3CE06FEB706001123A0D7009306300079
:1001A00023A0D7009356050193F6F60F23A0D7009E
:1001B0009356850093F6F60F23A0D7001375F50F1D
:1001C00023A0A70093060600B7080001370300101C
:1001D000630E0604638C06040328070093070600D9
:1001E00003254800135505016374C50093070500F6
:1001F0003306F64063880700232018019387F7FF32
:100200006FF05FFF63140600232068008327070058
:1002100083A70700E3DE07FA2380F5009386F6FF45
:1002200093851500E39406FE6FF09FFA6780000047
:10023000130101FD23261102EFF09FF013060002C7
:100240009305010037051000EFF09FF2032701002E
:10025000B7C7DEC09387E7A5631AF70203274101FA
:10026000B717000093874710135707016310F70271
:10027000832581000326410037051000130606027E
:10028000EFF01FEF8327C100678007006F000000B9
:040000058000000077
:00000001FF
